{
  "_format": "hh-sol-artifact-1",
  "contractName": "BEATFactory",
  "sourceName": "contracts/BeatFactory.sol",
  "abi": [
    {
      "inputs": [],
      "stateMutability": "nonpayable",
      "type": "constructor"
    },
    {
      "inputs": [
        {
          "internalType": "address",
          "name": "owner",
          "type": "address"
        }
      ],
      "name": "OwnableInvalidOwner",
      "type": "error"
    },
    {
      "inputs": [
        {
          "internalType": "address",
          "name": "account",
          "type": "address"
        }
      ],
      "name": "OwnableUnauthorizedAccount",
      "type": "error"
    },
    {
      "anonymous": false,
      "inputs": [
        {
          "indexed": true,
          "internalType": "address",
          "name": "previousOwner",
          "type": "address"
        },
        {
          "indexed": true,
          "internalType": "address",
          "name": "newOwner",
          "type": "address"
        }
      ],
      "name": "OwnershipTransferred",
      "type": "event"
    },
    {
      "anonymous": false,
      "inputs": [
        {
          "indexed": false,
          "internalType": "uint256",
          "name": "fee",
          "type": "uint256"
        }
      ],
      "name": "PlatformFeeUpdated",
      "type": "event"
    },
    {
      "anonymous": false,
      "inputs": [
        {
          "indexed": false,
          "internalType": "address",
          "name": "wallet",
          "type": "address"
        }
      ],
      "name": "PlatformWalletUpdated",
      "type": "event"
    },
    {
      "anonymous": false,
      "inputs": [
        {
          "indexed": false,
          "internalType": "address",
          "name": "listing",
          "type": "address"
        }
      ],
      "name": "ProjectCreated",
      "type": "event"
    },
    {
      "inputs": [],
      "name": "DOTB",
      "outputs": [
        {
          "internalType": "address",
          "name": "",
          "type": "address"
        }
      ],
      "stateMutability": "view",
      "type": "function"
    },
    {
      "inputs": [
        {
          "internalType": "uint256",
          "name": "",
          "type": "uint256"
        }
      ],
      "name": "contractsList",
      "outputs": [
        {
          "internalType": "address",
          "name": "",
          "type": "address"
        }
      ],
      "stateMutability": "view",
      "type": "function"
    },
    {
      "inputs": [
        {
          "internalType": "contract IERC20",
          "name": "_stableCoin",
          "type": "address"
        },
        {
          "internalType": "string",
          "name": "_name",
          "type": "string"
        },
        {
          "internalType": "string",
          "name": "_projectSymbol",
          "type": "string"
        },
        {
          "internalType": "uint256",
          "name": "_fundraisingGoal",
          "type": "uint256"
        },
        {
          "internalType": "uint256",
          "name": "_contributionAmnt",
          "type": "uint256"
        },
        {
          "internalType": "uint256",
          "name": "_maxAllowedShares",
          "type": "uint256"
        },
        {
          "internalType": "uint256",
          "name": "_projectStartTime",
          "type": "uint256"
        },
        {
          "internalType": "uint256",
          "name": "_projectEndTime",
          "type": "uint256"
        },
        {
          "internalType": "address",
          "name": "_projectOwner",
          "type": "address"
        }
      ],
      "name": "createListing",
      "outputs": [
        {
          "internalType": "address",
          "name": "newProjectAddress",
          "type": "address"
        }
      ],
      "stateMutability": "nonpayable",
      "type": "function"
    },
    {
      "inputs": [],
      "name": "deployedContracts",
      "outputs": [
        {
          "internalType": "address[]",
          "name": "",
          "type": "address[]"
        }
      ],
      "stateMutability": "view",
      "type": "function"
    },
    {
      "inputs": [],
      "name": "deployedCounter",
      "outputs": [
        {
          "internalType": "uint256",
          "name": "__counter",
          "type": "uint256"
        }
      ],
      "stateMutability": "view",
      "type": "function"
    },
    {
      "inputs": [
        {
          "internalType": "address",
          "name": "deployer",
          "type": "address"
        }
      ],
      "name": "getUserProjects",
      "outputs": [
        {
          "internalType": "address[]",
          "name": "contracts",
          "type": "address[]"
        }
      ],
      "stateMutability": "view",
      "type": "function"
    },
    {
      "inputs": [
        {
          "internalType": "uint256",
          "name": "_platformFee",
          "type": "uint256"
        }
      ],
      "name": "modifyPlatformFee",
      "outputs": [],
      "stateMutability": "nonpayable",
      "type": "function"
    },
    {
      "inputs": [],
      "name": "owner",
      "outputs": [
        {
          "internalType": "address",
          "name": "",
          "type": "address"
        }
      ],
      "stateMutability": "view",
      "type": "function"
    },
    {
      "inputs": [],
      "name": "platformFee",
      "outputs": [
        {
          "internalType": "uint256",
          "name": "",
          "type": "uint256"
        }
      ],
      "stateMutability": "view",
      "type": "function"
    },
    {
      "inputs": [],
      "name": "platformWallet",
      "outputs": [
        {
          "internalType": "address",
          "name": "",
          "type": "address"
        }
      ],
      "stateMutability": "view",
      "type": "function"
    },
    {
      "inputs": [],
      "name": "renounceOwnership",
      "outputs": [],
      "stateMutability": "nonpayable",
      "type": "function"
    },
    {
      "inputs": [
        {
          "internalType": "address",
          "name": "newOwner",
          "type": "address"
        }
      ],
      "name": "transferOwnership",
      "outputs": [],
      "stateMutability": "nonpayable",
      "type": "function"
    },
    {
      "inputs": [
        {
          "internalType": "address",
          "name": "_newWallet",
          "type": "address"
        }
      ],
      "name": "updatePlatformWallet",
      "outputs": [],
      "stateMutability": "nonpayable",
      "type": "function"
    }
  ],
  "bytecode": "0x60806040526019600255600380546001600160a01b03191673cc4ef3fc58aa1ee91626f50037734b5f3ca1358a17905534801561003b57600080fd5b506100453361005c565b600480546001600160a01b031916331790556100ac565b600080546001600160a01b038381166001600160a01b0319831681178455604051919092169283917f8be0079c531659141344cd1fd0a4f28419497f9722a3daafe3b4186f6b6457e09190a35050565b6129c7806100bb6000396000f3fe60806040523480156200001157600080fd5b5060043610620000e05760003560e01c8063ada4ef301162000097578063e32e723c116200006e578063e32e723c14620001b5578063f2fde38b14620001cc578063f807905214620001e3578063fa2af9da14620001fa57600080fd5b8063ada4ef30146200017b578063c54a95881462000192578063d396f33614620001ab57600080fd5b806322aeebdc14620000e557806326232a2e1462000119578063532f52781462000132578063715018a614620001465780638da5cb5b1462000152578063a5d0bcff1462000164575b600080fd5b620000fc620000f6366004620006ed565b6200020e565b6040516001600160a01b0390911681526020015b60405180910390f35b6200012360025481565b60405190815260200162000110565b600454620000fc906001600160a01b031681565b620001506200033f565b005b6000546001600160a01b0316620000fc565b6200015062000175366004620007b4565b62000357565b620001506200018c366004620007ce565b6200039d565b6200019c62000443565b604051620001109190620007f5565b62000123620004a7565b6200019c620001c6366004620007ce565b620004b8565b62000150620001dd366004620007ce565b62000530565b620000fc620001f4366004620007b4565b62000574565b600354620000fc906001600160a01b031681565b60006200021a6200059f565b60008a8a8a8a8a8a8a8a8a600254600360009054906101000a90046001600160a01b03166040516200024c906200061e565b620002629b9a999897969594939291906200088c565b604051809103906000f0801580156200027f573d6000803e3d6000fd5b506005805460018082019092557f036b6384b5eca791c62761152d0c79bb0604c104a5fb6f4eb0703f3154bb3db00180546001600160a01b0384166001600160a01b0319918216811790925582548301835533600090815260066020908152604080832080549687018155835291819020909401805490921683179091558051918252519293507f3815a547ca4b753ae5cc6a73f3e019b6791faedad7fe0614a6e08d0bcfb137f1929081900390910190a19a9950505050505050505050565b620003496200059f565b620003556000620005ce565b565b620003616200059f565b60028190556040518181527f45610d581145924dd7090a5017e5f2b1d6f42213bb2e95707ff86846bbfcb1ca906020015b60405180910390a150565b6004546001600160a01b03163314620003f45760405162461bcd60e51b81526020600482015260146024820152736f6e6c7920444f54422063616e2075706461746560601b60448201526064015b60405180910390fd5b600380546001600160a01b0319166001600160a01b0383169081179091556040519081527f73238e3ae0a71b401b31ae67204506d074de41bd5c084082fba9b64b1c7fa28f9060200162000392565b606060058054806020026020016040519081016040528092919081815260200182805480156200049d57602002820191906000526020600020905b81546001600160a01b031681526001909101906020018083116200047e575b5050505050905090565b6000620004b360015490565b905090565b6001600160a01b03811660009081526006602090815260408083208054825181850281018501909352808352606094938301828280156200052357602002820191906000526020600020905b81546001600160a01b0316815260019091019060200180831162000504575b5093979650505050505050565b6200053a6200059f565b6001600160a01b0381166200056657604051631e4fbdf760e01b815260006004820152602401620003eb565b6200057181620005ce565b50565b600581815481106200058557600080fd5b6000918252602090912001546001600160a01b0316905081565b6000546001600160a01b03163314620003555760405163118cdaa760e01b8152336004820152602401620003eb565b600080546001600160a01b038381166001600160a01b0319831681178455604051919092169283917f8be0079c531659141344cd1fd0a4f28419497f9722a3daafe3b4186f6b6457e09190a35050565b61207e806200091483390190565b6001600160a01b03811681146200057157600080fd5b634e487b7160e01b600052604160045260246000fd5b600082601f8301126200066a57600080fd5b813567ffffffffffffffff8082111562000688576200068862000642565b604051601f8301601f19908116603f01168101908282118183101715620006b357620006b362000642565b81604052838152866020858801011115620006cd57600080fd5b836020870160208301376000602085830101528094505050505092915050565b60008060008060008060008060006101208a8c0312156200070d57600080fd5b89356200071a816200062c565b985060208a013567ffffffffffffffff808211156200073857600080fd5b620007468d838e0162000658565b995060408c01359150808211156200075d57600080fd5b506200076c8c828d0162000658565b97505060608a0135955060808a0135945060a08a0135935060c08a0135925060e08a013591506101008a0135620007a3816200062c565b809150509295985092959850929598565b600060208284031215620007c757600080fd5b5035919050565b600060208284031215620007e157600080fd5b8135620007ee816200062c565b9392505050565b6020808252825182820181905260009190848201906040850190845b81811015620008385783516001600160a01b03168352928401929184019160010162000811565b50909695505050505050565b6000815180845260005b818110156200086c576020818501810151868301820152016200084e565b506000602082860101526020601f19601f83011685010191505092915050565b6001600160a01b038c8116825261016060208301819052600091620008b48483018f62000844565b91508382036040850152620008ca828e62000844565b606085019c909c52608084019a909a52505060a081019690965260c086019490945260e0850192909252841661010084015261012083015290911661014090910152939250505056fe60806040523480156200001157600080fd5b506040516200207e3803806200207e833981016040819052620000349162000370565b89896200004133620001c6565b60046200004f8382620004e7565b5060056200005e8282620004e7565b5050600160065550848411620000c75760405162461bcd60e51b815260206004820152602360248201527f456e642074696d652063616e2774206265206265666f72652073746172742074604482015262696d6560e81b60648201526084015b60405180910390fd5b6001600160a01b038b166200011f5760405162461bcd60e51b815260206004820152601660248201527f43616e277420736574207a65726f2061646472657373000000000000000000006044820152606401620000be565b600780546001600160a01b0319166001600160a01b038d16179055620001458362000216565b6200015988670de0b6b3a7640000620005b3565b600c556200017087670de0b6b3a7640000620005b3565b6016556200018786670de0b6b3a7640000620005b3565b601755600a94909455600b9290925550600855600980546001600160a01b0319166001600160a01b0390921691909117905550620005df945050505050565b600080546001600160a01b038381166001600160a01b0319831681178455604051919092169283917f8be0079c531659141344cd1fd0a4f28419497f9722a3daafe3b4186f6b6457e09190a35050565b620002206200025a565b6001600160a01b0381166200024c57604051631e4fbdf760e01b815260006004820152602401620000be565b6200025781620001c6565b50565b6000546001600160a01b03163314620002895760405163118cdaa760e01b8152336004820152602401620000be565b565b80516001600160a01b0381168114620002a357600080fd5b919050565b634e487b7160e01b600052604160045260246000fd5b600082601f830112620002d057600080fd5b81516001600160401b0380821115620002ed57620002ed620002a8565b604051601f8301601f19908116603f01168101908282118183101715620003185762000318620002a8565b81604052838152602092508660208588010111156200033657600080fd5b600091505b838210156200035a57858201830151818301840152908201906200033b565b6000602085830101528094505050505092915050565b60008060008060008060008060008060006101608c8e0312156200039357600080fd5b6200039e8c6200028b565b60208d0151909b506001600160401b03811115620003bb57600080fd5b620003c98e828f01620002be565b60408e0151909b5090506001600160401b03811115620003e857600080fd5b620003f68e828f01620002be565b99505060608c0151975060808c0151965060a08c0151955060c08c0151945060e08c015193506200042b6101008d016200028b565b92506101208c01519150620004446101408d016200028b565b90509295989b509295989b9093969950565b600181811c908216806200046b57607f821691505b6020821081036200048c57634e487b7160e01b600052602260045260246000fd5b50919050565b601f821115620004e2576000816000526020600020601f850160051c81016020861015620004bd5750805b601f850160051c820191505b81811015620004de57828155600101620004c9565b5050505b505050565b81516001600160401b03811115620005035762000503620002a8565b6200051b8162000514845462000456565b8462000492565b602080601f8311600181146200055357600084156200053a5750858301515b600019600386901b1c1916600185901b178555620004de565b600085815260208120601f198616915b82811015620005845788860151825594840194600190910190840162000563565b5085821015620005a35787850151600019600388901b60f8161c191681555b5050505050600190811b01905550565b8082028115828204841417620005d957634e487b7160e01b600052601160045260246000fd5b92915050565b611a8f80620005ef6000396000f3fe60806040526004361061021e5760003560e01c80638da5cb5b11610123578063c0daee49116100ab578063ccec37161161006f578063ccec3716146105d1578063dd62ed3e146105f1578063e7afeeed14610637578063f2fde38b14610664578063fa2af9da1461068457600080fd5b8063c0daee491461054d578063c16a038314610563578063c2ced7e514610590578063c5c4744c146105a5578063ca34da20146105bb57600080fd5b8063992642e5116100f2578063992642e5146104aa5780639e7b08d5146104ca578063a9059cbb146104e0578063abd6192c14610500578063ba53c2831461052d57600080fd5b80638da5cb5b1461043357806394febbf31461046557806395d89b411461047b57806395ee12211461049057600080fd5b8063313ce567116101a657806373aff5af1161017557806373aff5af146103b35780637921ba96146103c95780637b352962146103de5780637d549e99146103fd5780638d4e40831461041357600080fd5b8063313ce567146103375780636d1e65161461035357806370a0823114610368578063715018a61461039e57600080fd5b806315643554116101ed57806315643554146102c057806318160ddd146102d657806323b872dd146102eb57806326232a2e1461030b578063264938481461032157600080fd5b80630614117a1461022a57806306fdde031461024157806307e875121461026c578063095ea7b31461029057600080fd5b3661022557005b600080fd5b34801561023657600080fd5b5061023f6106a4565b005b34801561024d57600080fd5b50610256610725565b6040516102639190611776565b60405180910390f35b34801561027857600080fd5b5061028260165481565b604051908152602001610263565b34801561029c57600080fd5b506102b06102ab3660046117e1565b6107b7565b6040519015158152602001610263565b3480156102cc57600080fd5b50610282600b5481565b3480156102e257600080fd5b50600354610282565b3480156102f757600080fd5b506102b061030636600461180b565b6107d1565b34801561031757600080fd5b5061028260085481565b34801561032d57600080fd5b5061028260105481565b34801561034357600080fd5b5060405160128152602001610263565b34801561035f57600080fd5b5061023f6107f5565b34801561037457600080fd5b50610282610383366004611847565b6001600160a01b031660009081526001602052604090205490565b3480156103aa57600080fd5b5061023f6108bc565b3480156103bf57600080fd5b50610282600e5481565b3480156103d557600080fd5b5061023f6108d0565b3480156103ea57600080fd5b506012546102b090610100900460ff1681565b34801561040957600080fd5b5061028260115481565b34801561041f57600080fd5b506012546102b09062010000900460ff1681565b34801561043f57600080fd5b506000546001600160a01b03165b6040516001600160a01b039091168152602001610263565b34801561047157600080fd5b50610282600a5481565b34801561048757600080fd5b50610256610c05565b34801561049c57600080fd5b506012546102b09060ff1681565b3480156104b657600080fd5b5060075461044d906001600160a01b031681565b3480156104d657600080fd5b50610282600c5481565b3480156104ec57600080fd5b506102b06104fb3660046117e1565b610c14565b34801561050c57600080fd5b5061028261051b366004611847565b60156020526000908152604090205481565b34801561053957600080fd5b5061023f610548366004611869565b610c22565b34801561055957600080fd5b50610282600f5481565b34801561056f57600080fd5b5061028261057e366004611847565b60146020526000908152604090205481565b34801561059c57600080fd5b5061023f6110d6565b3480156105b157600080fd5b50610282600d5481565b3480156105c757600080fd5b5061028260175481565b3480156105dd57600080fd5b5061023f6105ec366004611847565b611216565b3480156105fd57600080fd5b5061028261060c366004611882565b6001600160a01b03918216600090815260026020908152604080832093909416825291909152205490565b34801561064357600080fd5b50610282610652366004611847565b60136020526000908152604090205481565b34801561067057600080fd5b5061023f61067f366004611847565b61139b565b34801561069057600080fd5b5060095461044d906001600160a01b031681565b6106ac6113d6565b600047116106f65760405162461bcd60e51b81526020600482015260126024820152712737ba3434b733903a37903932b1b7bb32b960711b60448201526064015b60405180910390fd5b60405133904780156108fc02916000818181858888f19350505050158015610722573d6000803e3d6000fd5b50565b606060048054610734906118b5565b80601f0160208091040260200160405190810160405280929190818152602001828054610760906118b5565b80156107ad5780601f10610782576101008083540402835291602001916107ad565b820191906000526020600020905b81548152906001019060200180831161079057829003601f168201915b5050505050905090565b6000336107c5818585611403565b60019150505b92915050565b6000336107df858285611410565b6107ea85858561148e565b506001949350505050565b6107fd6113d6565b60125460ff16156108205760405162461bcd60e51b81526004016106ed906118ef565b600a5442101580156108335750600b5442105b61084f5760405162461bcd60e51b81526004016106ed90611926565b601254610100900460ff16156108a75760405162461bcd60e51b815260206004820152601d60248201527f50726f6a6563743a2070726f6a656374206861732066696e697368656400000060448201526064016106ed565b6012805460ff19166001179055600e54600f55565b6108c46113d6565b6108ce60006114ed565b565b6002600654036108f25760405162461bcd60e51b81526004016106ed90611994565b600260065560125460ff168061091d5750600b54421015801561091d5750601254610100900460ff16155b6109755760405162461bcd60e51b8152602060048201526024808201527f50726f6a6563743a2063616e6e6f7420726566756e642070726f6a6563742066604482015263756e647360e01b60648201526084016106ed565b336000908152601360205260409020546109df5760405162461bcd60e51b815260206004820152602560248201527f50726f6a6563743a206164647265737320686173206e6f20636f6e747269627560448201526474696f6e7360d81b60648201526084016106ed565b6000600f54118015610a6c575033600090815260136020526040908190205460075491516370a0823160e01b815230600482015290916001600160a01b0316906370a0823190602401602060405180830381865afa158015610a45573d6000803e3d6000fd5b505050506040513d601f19601f82011682018060405250810190610a6991906119cb565b10155b610ab85760405162461bcd60e51b815260206004820152601e60248201527f4e6f207368617265732072656d61696e696e6720666f7220726566756e64000060448201526064016106ed565b336000908152601360205260408120546010805491928392610adb9084906119fa565b90915550503360009081526013602090815260408083208390556014909152812054600e805491929091610b10908490611a0d565b909155505033600090815260146020526040812054600f805491929091610b38908490611a0d565b90915550503360008181526014602052604080822091909155600754905163a9059cbb60e01b81526004810192909252602482018390526001600160a01b03169063a9059cbb906044016020604051808303816000875af1158015610ba1573d6000803e3d6000fd5b505050506040513d601f19601f82011682018060405250810190610bc59190611a20565b50604051818152309033907ff40cc8c1a1d17359049ba500cfc894596a692cffc9d03943cd92ec2e159cf6ae9060200160405180910390a3506001600655565b606060058054610734906118b5565b6000336107c581858561148e565b60125460ff1615610c455760405162461bcd60e51b81526004016106ed906118ef565b600a544210158015610c585750600b5442105b610c745760405162461bcd60e51b81526004016106ed90611926565b601254610100900460ff1615610ccc5760405162461bcd60e51b815260206004820152601d60248201527f50726f6a6563743a2070726f6a656374206861732066696e697368656400000060448201526064016106ed565b600260065403610cee5760405162461bcd60e51b81526004016106ed90611994565b60026006558015801590610d0457506017548111155b610d765760405162461bcd60e51b815260206004820152603860248201527f5368617265732063616e2774206265206c657373207468616e207a65726f206160448201527f6e64206d6f7265207468616e206d617820616c6c6f776564000000000000000060648201526084016106ed565b600c546007546040516370a0823160e01b81523060048201526001600160a01b03909116906370a0823190602401602060405180830381865afa158015610dc1573d6000803e3d6000fd5b505050506040513d601f19601f82011682018060405250810190610de591906119cb565b82601654610df39190611a42565b610dfd91906119fa565b1115610e565760405162461bcd60e51b815260206004820152602260248201527f457863656564696e6720746f74616c2066756e642072616973696e6720676f616044820152616c2160f01b60648201526084016106ed565b60175433600090815260146020526040902054610e749083906119fa565b1115610ed55760405162461bcd60e51b815260206004820152602a60248201527f43616e277420627579206d6f7265207468616e20746865206d617820736861726044820152696520616c6c6f7765642160b01b60648201526084016106ed565b600081601654610ee59190611a42565b90506017548203610f04576012805461ff001916610100179055610fa0565b600c546007546040516370a0823160e01b81523060048201526001600160a01b03909116906370a0823190602401602060405180830381865afa158015610f4f573d6000803e3d6000fd5b505050506040513d601f19601f82011682018060405250810190610f7391906119cb565b83601654610f819190611a42565b610f8b91906119fa565b10610fa0576012805461ff0019166101001790555b6007546040516323b872dd60e01b8152336004820152306024820152604481018390526001600160a01b03909116906323b872dd906064016020604051808303816000875af1158015610ff7573d6000803e3d6000fd5b505050506040513d601f19601f8201168201806040525081019061101b9190611a20565b50336000908152601360205260408120805483929061103b9084906119fa565b9091555050336000908152601460205260408120805484929061105f9084906119fa565b9250508190555080600d600082825461107891906119fa565b9250508190555081600e600082825461109191906119fa565b9091555050604051818152309033907f71be8766c1bd9bb33623f518aecc1d98612c75b596f4a0c38408f72239ef4e609060200160405180910390a350506001600655565b60125460ff16156110f95760405162461bcd60e51b81526004016106ed906118ef565b60026006540361111b5760405162461bcd60e51b81526004016106ed90611994565b600260065560125462010000900460ff166111835760405162461bcd60e51b815260206004820152602260248201527f50726f6a6563743a2053616c65206973206e6f742066696e6973686564207965604482015261742160f01b60648201526084016106ed565b33600090815260146020908152604080832054601590925282208054919283926111ae9084906119fa565b909155506111be9050338261153d565b80601160008282546111d091906119fa565b909155505060408051338152602081018390527f649fde579b8ba49bd4fbcb330614cb075b8d53c352c5adc49161b6f654e400a2910160405180910390a1506001600655565b61121e6113d6565b6007546001600160a01b03908116908216036112975760405162461bcd60e51b815260206004820152603260248201527f43616e277420636c61696d2066756e642072616973696e6720746f6b656e73206044820152717573696e672074686973206d6574686f642160701b60648201526084016106ed565b6040516370a0823160e01b81523060048201526000906001600160a01b038316906370a0823190602401602060405180830381865afa1580156112de573d6000803e3d6000fd5b505050506040513d601f19601f8201168201806040525081019061130291906119cb565b9050816001600160a01b031663a9059cbb6113256000546001600160a01b031690565b6040516001600160e01b031960e084901b1681526001600160a01b039091166004820152602481018490526044016020604051808303816000875af1158015611372573d6000803e3d6000fd5b505050506040513d601f19601f820116820180604052508101906113969190611a20565b505050565b6113a36113d6565b6001600160a01b0381166113cd57604051631e4fbdf760e01b8152600060048201526024016106ed565b610722816114ed565b6000546001600160a01b031633146108ce5760405163118cdaa760e01b81523360048201526024016106ed565b6113968383836001611577565b6001600160a01b038381166000908152600260209081526040808320938616835292905220546000198114611488578181101561147957604051637dc7a0d960e11b81526001600160a01b038416600482015260248101829052604481018390526064016106ed565b61148884848484036000611577565b50505050565b6001600160a01b0383166114b857604051634b637e8f60e11b8152600060048201526024016106ed565b6001600160a01b0382166114e25760405163ec442f0560e01b8152600060048201526024016106ed565b61139683838361164c565b600080546001600160a01b038381166001600160a01b0319831681178455604051919092169283917f8be0079c531659141344cd1fd0a4f28419497f9722a3daafe3b4186f6b6457e09190a35050565b6001600160a01b0382166115675760405163ec442f0560e01b8152600060048201526024016106ed565b6115736000838361164c565b5050565b6001600160a01b0384166115a15760405163e602df0560e01b8152600060048201526024016106ed565b6001600160a01b0383166115cb57604051634a1406b160e11b8152600060048201526024016106ed565b6001600160a01b038085166000908152600260209081526040808320938716835292905220829055801561148857826001600160a01b0316846001600160a01b03167f8c5be1e5ebec7d5bd14f71427d1e84f3dd0314c0f7b2291e5b200ac8c7c3b9258460405161163e91815260200190565b60405180910390a350505050565b6001600160a01b03831661167757806003600082825461166c91906119fa565b909155506116e99050565b6001600160a01b038316600090815260016020526040902054818110156116ca5760405163391434e360e21b81526001600160a01b038516600482015260248101829052604481018390526064016106ed565b6001600160a01b03841660009081526001602052604090209082900390555b6001600160a01b03821661170557600380548290039055611724565b6001600160a01b03821660009081526001602052604090208054820190555b816001600160a01b0316836001600160a01b03167fddf252ad1be2c89b69c2b068fc378daa952ba7f163c4a11628f55a4df523b3ef8360405161176991815260200190565b60405180910390a3505050565b60006020808352835180602085015260005b818110156117a457858101830151858201604001528201611788565b506000604082860101526040601f19601f8301168501019250505092915050565b80356001600160a01b03811681146117dc57600080fd5b919050565b600080604083850312156117f457600080fd5b6117fd836117c5565b946020939093013593505050565b60008060006060848603121561182057600080fd5b611829846117c5565b9250611837602085016117c5565b9150604084013590509250925092565b60006020828403121561185957600080fd5b611862826117c5565b9392505050565b60006020828403121561187b57600080fd5b5035919050565b6000806040838503121561189557600080fd5b61189e836117c5565b91506118ac602084016117c5565b90509250929050565b600181811c908216806118c957607f821691505b6020821081036118e957634e487b7160e01b600052602260045260246000fd5b50919050565b6020808252601d908201527f50726f6a6563743a2070726f6a6563742069732063616e63656c6c6564000000604082015260600190565b60208082526048908201527f50726f6a6563743a2045697468657220697420686173206e6f7420737461727460408201527f6564206f72207468652074696d65206c696d697420666f722070726f6a65637460608201526708195e1c1a5c995960c21b608082015260a00190565b6020808252601f908201527f5265656e7472616e637947756172643a207265656e7472616e742063616c6c00604082015260600190565b6000602082840312156119dd57600080fd5b5051919050565b634e487b7160e01b600052601160045260246000fd5b808201808211156107cb576107cb6119e4565b818103818111156107cb576107cb6119e4565b600060208284031215611a3257600080fd5b8151801515811461186257600080fd5b80820281158282048414176107cb576107cb6119e456fea264697066735822122073650f267eec36c0ccff7ccce2e606df415205777e3104a0d32affbfb033636364736f6c63430008180033a2646970667358221220650f40f26840ecf72ca98f54a750e353a721aece682bf88a11bb03677e7405b464736f6c63430008180033",
  "linkReferences": {},
  "deployedLinkReferences": {}
}