{
  "_format": "hh-sol-artifact-1",
  "contractName": "LotterySingle",
  "sourceName": "contracts/LotterySingle.sol",
  "abi": [
    {
      "inputs": [
        {
          "internalType": "uint256",
          "name": "_startTime",
          "type": "uint256"
        },
        {
          "internalType": "uint256",
          "name": "_duration",
          "type": "uint256"
        },
        {
          "internalType": "contract IERC20",
          "name": "_token",
          "type": "address"
        },
        {
          "internalType": "uint256",
          "name": "_ticketPrice",
          "type": "uint256"
        },
        {
          "internalType": "uint8",
          "name": "_decimals",
          "type": "uint8"
        },
        {
          "internalType": "uint256",
          "name": "_maxTicketsPerWallet",
          "type": "uint256"
        },
        {
          "internalType": "uint256[]",
          "name": "_shares",
          "type": "uint256[]"
        },
        {
          "internalType": "uint256",
          "name": "_creatorFee",
          "type": "uint256"
        }
      ],
      "stateMutability": "nonpayable",
      "type": "constructor"
    },
    {
      "inputs": [
        {
          "internalType": "address",
          "name": "target",
          "type": "address"
        }
      ],
      "name": "AddressEmptyCode",
      "type": "error"
    },
    {
      "inputs": [
        {
          "internalType": "address",
          "name": "account",
          "type": "address"
        }
      ],
      "name": "AddressInsufficientBalance",
      "type": "error"
    },
    {
      "inputs": [],
      "name": "FailedInnerCall",
      "type": "error"
    },
    {
      "inputs": [
        {
          "internalType": "address",
          "name": "token",
          "type": "address"
        }
      ],
      "name": "SafeERC20FailedOperation",
      "type": "error"
    },
    {
      "anonymous": false,
      "inputs": [
        {
          "indexed": false,
          "internalType": "enum LotterySingle.LotteryStatus",
          "name": "status",
          "type": "uint8"
        }
      ],
      "name": "LotteryStatusChanged",
      "type": "event"
    },
    {
      "anonymous": false,
      "inputs": [
        {
          "indexed": true,
          "internalType": "address",
          "name": "from",
          "type": "address"
        },
        {
          "indexed": true,
          "internalType": "address",
          "name": "to",
          "type": "address"
        }
      ],
      "name": "OwnershipTransferRequested",
      "type": "event"
    },
    {
      "anonymous": false,
      "inputs": [
        {
          "indexed": true,
          "internalType": "address",
          "name": "from",
          "type": "address"
        },
        {
          "indexed": true,
          "internalType": "address",
          "name": "to",
          "type": "address"
        }
      ],
      "name": "OwnershipTransferred",
      "type": "event"
    },
    {
      "anonymous": false,
      "inputs": [
        {
          "indexed": false,
          "internalType": "address",
          "name": "participant",
          "type": "address"
        }
      ],
      "name": "ParticipantJoined",
      "type": "event"
    },
    {
      "anonymous": false,
      "inputs": [],
      "name": "PrizesDistributed",
      "type": "event"
    },
    {
      "inputs": [],
      "name": "acceptOwnership",
      "outputs": [],
      "stateMutability": "nonpayable",
      "type": "function"
    },
    {
      "inputs": [],
      "name": "cancelLottery",
      "outputs": [],
      "stateMutability": "nonpayable",
      "type": "function"
    },
    {
      "inputs": [],
      "name": "claimRefund",
      "outputs": [],
      "stateMutability": "nonpayable",
      "type": "function"
    },
    {
      "inputs": [],
      "name": "creatorFee",
      "outputs": [
        {
          "internalType": "uint256",
          "name": "",
          "type": "uint256"
        }
      ],
      "stateMutability": "view",
      "type": "function"
    },
    {
      "inputs": [],
      "name": "creatorFeeAmount",
      "outputs": [
        {
          "internalType": "uint256",
          "name": "",
          "type": "uint256"
        }
      ],
      "stateMutability": "view",
      "type": "function"
    },
    {
      "inputs": [],
      "name": "drawWinners",
      "outputs": [],
      "stateMutability": "nonpayable",
      "type": "function"
    },
    {
      "inputs": [],
      "name": "endTime",
      "outputs": [
        {
          "internalType": "uint256",
          "name": "",
          "type": "uint256"
        }
      ],
      "stateMutability": "view",
      "type": "function"
    },
    {
      "inputs": [],
      "name": "lotteryDuration",
      "outputs": [
        {
          "internalType": "uint256",
          "name": "",
          "type": "uint256"
        }
      ],
      "stateMutability": "view",
      "type": "function"
    },
    {
      "inputs": [],
      "name": "maxTicketsPerWallet",
      "outputs": [
        {
          "internalType": "uint256",
          "name": "",
          "type": "uint256"
        }
      ],
      "stateMutability": "view",
      "type": "function"
    },
    {
      "inputs": [],
      "name": "minTicketsForRaffle",
      "outputs": [
        {
          "internalType": "uint256",
          "name": "",
          "type": "uint256"
        }
      ],
      "stateMutability": "view",
      "type": "function"
    },
    {
      "inputs": [],
      "name": "owner",
      "outputs": [
        {
          "internalType": "address",
          "name": "",
          "type": "address"
        }
      ],
      "stateMutability": "view",
      "type": "function"
    },
    {
      "inputs": [
        {
          "internalType": "uint256",
          "name": "",
          "type": "uint256"
        }
      ],
      "name": "participants",
      "outputs": [
        {
          "internalType": "address",
          "name": "",
          "type": "address"
        }
      ],
      "stateMutability": "view",
      "type": "function"
    },
    {
      "inputs": [
        {
          "internalType": "uint256",
          "name": "_tickets",
          "type": "uint256"
        }
      ],
      "name": "participate",
      "outputs": [],
      "stateMutability": "nonpayable",
      "type": "function"
    },
    {
      "inputs": [],
      "name": "platformFee",
      "outputs": [
        {
          "internalType": "uint256",
          "name": "",
          "type": "uint256"
        }
      ],
      "stateMutability": "view",
      "type": "function"
    },
    {
      "inputs": [],
      "name": "platformFeeAmount",
      "outputs": [
        {
          "internalType": "uint256",
          "name": "",
          "type": "uint256"
        }
      ],
      "stateMutability": "view",
      "type": "function"
    },
    {
      "inputs": [],
      "name": "platformWallet",
      "outputs": [
        {
          "internalType": "address",
          "name": "",
          "type": "address"
        }
      ],
      "stateMutability": "view",
      "type": "function"
    },
    {
      "inputs": [],
      "name": "prizePot",
      "outputs": [
        {
          "internalType": "uint256",
          "name": "",
          "type": "uint256"
        }
      ],
      "stateMutability": "view",
      "type": "function"
    },
    {
      "inputs": [
        {
          "internalType": "bytes32",
          "name": "requestId",
          "type": "bytes32"
        },
        {
          "internalType": "uint256",
          "name": "randomness",
          "type": "uint256"
        }
      ],
      "name": "rawFulfillRandomness",
      "outputs": [],
      "stateMutability": "nonpayable",
      "type": "function"
    },
    {
      "inputs": [],
      "name": "refundStatus",
      "outputs": [
        {
          "internalType": "bool",
          "name": "",
          "type": "bool"
        }
      ],
      "stateMutability": "view",
      "type": "function"
    },
    {
      "inputs": [
        {
          "internalType": "uint256",
          "name": "",
          "type": "uint256"
        }
      ],
      "name": "shares",
      "outputs": [
        {
          "internalType": "uint256",
          "name": "",
          "type": "uint256"
        }
      ],
      "stateMutability": "view",
      "type": "function"
    },
    {
      "inputs": [],
      "name": "startTime",
      "outputs": [
        {
          "internalType": "uint256",
          "name": "",
          "type": "uint256"
        }
      ],
      "stateMutability": "view",
      "type": "function"
    },
    {
      "inputs": [],
      "name": "status",
      "outputs": [
        {
          "internalType": "enum LotterySingle.LotteryStatus",
          "name": "",
          "type": "uint8"
        }
      ],
      "stateMutability": "view",
      "type": "function"
    },
    {
      "inputs": [],
      "name": "ticketPrice",
      "outputs": [
        {
          "internalType": "uint256",
          "name": "",
          "type": "uint256"
        }
      ],
      "stateMutability": "view",
      "type": "function"
    },
    {
      "inputs": [
        {
          "internalType": "address",
          "name": "",
          "type": "address"
        }
      ],
      "name": "ticketsBought",
      "outputs": [
        {
          "internalType": "uint256",
          "name": "",
          "type": "uint256"
        }
      ],
      "stateMutability": "view",
      "type": "function"
    },
    {
      "inputs": [],
      "name": "token",
      "outputs": [
        {
          "internalType": "contract IERC20",
          "name": "",
          "type": "address"
        }
      ],
      "stateMutability": "view",
      "type": "function"
    },
    {
      "inputs": [],
      "name": "totalTicketsSold",
      "outputs": [
        {
          "internalType": "uint256",
          "name": "",
          "type": "uint256"
        }
      ],
      "stateMutability": "view",
      "type": "function"
    },
    {
      "inputs": [
        {
          "internalType": "address",
          "name": "to",
          "type": "address"
        }
      ],
      "name": "transferOwnership",
      "outputs": [],
      "stateMutability": "nonpayable",
      "type": "function"
    },
    {
      "inputs": [
        {
          "internalType": "address",
          "name": "",
          "type": "address"
        }
      ],
      "name": "userRefunded",
      "outputs": [
        {
          "internalType": "bool",
          "name": "",
          "type": "bool"
        }
      ],
      "stateMutability": "view",
      "type": "function"
    },
    {
      "inputs": [
        {
          "internalType": "uint256",
          "name": "",
          "type": "uint256"
        }
      ],
      "name": "winners",
      "outputs": [
        {
          "internalType": "address",
          "name": "",
          "type": "address"
        }
      ],
      "stateMutability": "view",
      "type": "function"
    }
  ],
  "bytecode": "0x60c0604052600380546001600160a01b03191673e34010a5cb2f412b4d17d034b4aea9a29ba9e024179055600a6004557fd4bb89654db74673a187bd804519e65e3f71a52bc55f11da7601a13dcf5053146018556611c37937e080006019553480156200006b57600080fd5b5060405162001c5338038062001c538339810160408190526200008e91620003e0565b736a2aad07396b36fe02a22b33cf443582f682c82f7384b9b910527ad5c03a9ca831909e21e236ea7b0632806000816200010f5760405162461bcd60e51b815260206004820152601860248201527f43616e6e6f7420736574206f776e657220746f207a65726f000000000000000060448201526064015b60405180910390fd5b600080546001600160a01b0319166001600160a01b03848116919091179091558116156200014257620001428162000211565b5050506001600160a01b0391821660a05216608052600f8890556200016b8762015180620004a3565b60088190556200017c9089620004c3565b601055600a80546001600160a01b0319166001600160a01b038816178155620001a7908590620005d6565b620001b39086620004a3565b600b55600c8390558151620001d090600d906020850190620002bc565b506000600e5460ff166002811115620001ed57620001ed620005ee565b50620001fd905083600a620004a3565b600955600555506200060495505050505050565b336001600160a01b038216036200026b5760405162461bcd60e51b815260206004820152601760248201527f43616e6e6f74207472616e7366657220746f2073656c66000000000000000000604482015260640162000106565b600180546001600160a01b0319166001600160a01b0383811691821790925560008054604051929316917fed8889f560326eb138920d842192f0eb3dd22b4f139c87a2c57538e05bae12789190a350565b828054828255906000526020600020908101928215620002fa579160200282015b82811115620002fa578251825591602001919060010190620002dd565b50620003089291506200030c565b5090565b5b808211156200030857600081556001016200030d565b634e487b7160e01b600052604160045260246000fd5b600082601f8301126200034b57600080fd5b815160206001600160401b03808311156200036a576200036a62000323565b8260051b604051601f19603f8301168101818110848211171562000392576200039262000323565b6040529384526020818701810194908101925087851115620003b357600080fd5b6020870191505b84821015620003d557815183529183019190830190620003ba565b979650505050505050565b600080600080600080600080610100898b031215620003fe57600080fd5b885160208a015160408b015191995097506001600160a01b03811681146200042557600080fd5b60608a015160808b0151919750955060ff811681146200044457600080fd5b60a08a015160c08b015191955093506001600160401b038111156200046857600080fd5b620004768b828c0162000339565b92505060e089015190509295985092959890939650565b634e487b7160e01b600052601160045260246000fd5b8082028115828204841417620004bd57620004bd6200048d565b92915050565b80820180821115620004bd57620004bd6200048d565b600181815b808511156200051a578160001904821115620004fe57620004fe6200048d565b808516156200050c57918102915b93841c9390800290620004de565b509250929050565b6000826200053357506001620004bd565b816200054257506000620004bd565b81600181146200055b5760028114620005665762000586565b6001915050620004bd565b60ff8411156200057a576200057a6200048d565b50506001821b620004bd565b5060208310610133831016604e8410600b8410161715620005ab575081810a620004bd565b620005b78383620004d9565b8060001904821115620005ce57620005ce6200048d565b029392505050565b6000620005e760ff84168362000522565b9392505050565b634e487b7160e01b600052602160045260246000fd5b60805160a05161161b620006386000396000818161096e0152610eed015260008181610bc00152610ebe015261161b6000f3fe608060405234801561001057600080fd5b50600436106101cf5760003560e01c806384bd326411610104578063b5545a3c116100a2578063e88958dc11610071578063e88958dc1461036e578063f2fde38b14610377578063fa2af9da1461038a578063fc0c546a1461039d57600080fd5b8063b5545a3c1461034c578063b8211d1e14610354578063bd74c0461461035c578063ccb7077c1461036557600080fd5b806394985ddd116100de57806394985ddd146102e65780639d273b20146102f9578063a2fb117514610316578063ad91be261461032957600080fd5b806384bd3264146102ad578063859bd0f0146102cd5780638da5cb5b146102d557600080fd5b806335c1d3491161017157806378e979251161014b57806378e979251461027e57806379ba5097146102875780638090c0c914610291578063845c93061461029a57600080fd5b806335c1d34914610237578063556504e01461026257806357a858fc1461026b57600080fd5b80632b2f0a0c116101ad5780632b2f0a0c146102135780632d97902f1461021c5780633197cbb61461022557806334701db81461022e57600080fd5b80631209b1f6146101d4578063200d2ed2146101f057806326232a2e1461020a575b600080fd5b6101dd600b5481565b6040519081526020015b60405180910390f35b600e546101fd9060ff1681565b6040516101e791906113ee565b6101dd60045481565b6101dd600c5481565b6101dd60085481565b6101dd60105481565b6101dd60125481565b61024a610245366004611416565b6103b0565b6040516001600160a01b0390911681526020016101e7565b6101dd60075481565b6101dd610279366004611416565b6103da565b6101dd600f5481565b61028f6103fb565b005b6101dd60115481565b61028f6102a8366004611416565b6104aa565b6101dd6102bb36600461142f565b60156020526000908152604090205481565b61028f6108ac565b6000546001600160a01b031661024a565b61028f6102f4366004611458565b610963565b6016546103069060ff1681565b60405190151581526020016101e7565b61024a610324366004611416565b6109e9565b61030661033736600461142f565b60176020526000908152604090205460ff1681565b61028f6109f9565b61028f610b45565b6101dd60065481565b6101dd60095481565b6101dd60055481565b61028f61038536600461142f565b610c83565b60035461024a906001600160a01b031681565b600a5461024a906001600160a01b031681565b601381815481106103c057600080fd5b6000918252602090912001546001600160a01b0316905081565b600d81815481106103ea57600080fd5b600091825260209091200154905081565b6001546001600160a01b031633146104535760405162461bcd60e51b815260206004820152601660248201527526bab9ba10313290383937b837b9b2b21037bbb732b960511b60448201526064015b60405180910390fd5b60008054336001600160a01b0319808316821784556001805490911690556040516001600160a01b0390921692909183917f8be0079c531659141344cd1fd0a4f28419497f9722a3daafe3b4186f6b6457e091a350565b600081116104f25760405162461bcd60e51b8152602060048201526015602482015274109d5e48185d081b19585cdd080c481d1a58dad95d605a1b604482015260640161044a565b6000600e5460ff16600281111561050b5761050b6113d8565b1461054b5760405162461bcd60e51b815260206004820152601060248201526f2637ba3a32b93c903737ba1037b832b760811b604482015260640161044a565b60105442106105905760405162461bcd60e51b8152602060048201526011602482015270131bdd1d195c9e481a185cc8195b991959607a1b604482015260640161044a565b600c54336000908152601560205260409020546105ae908390611490565b11156105f45760405162461bcd60e51b8152602060048201526015602482015274151a58dad95d081b1a5b5a5d08195e18d959591959605a1b604482015260640161044a565b80600b5461060291906114a3565b600a546040516370a0823160e01b81523360048201526001600160a01b03909116906370a0823190602401602060405180830381865afa15801561064a573d6000803e3d6000fd5b505050506040513d601f19601f8201168201806040525081019061066e91906114ba565b10156106b35760405162461bcd60e51b8152602060048201526014602482015273496e73756666696369656e742062616c616e636560601b604482015260640161044a565b600081600b546106c391906114a3565b600a546040516323b872dd60e01b8152336004820152306024820152604481018390529192506001600160a01b0316906323b872dd906064016020604051808303816000875af115801561071b573d6000803e3d6000fd5b505050506040513d601f19601f8201168201806040525081019061073f91906114d3565b5060005b828110156107945760138054600181810183556000929092527f66de8ffda797e3de9c05e8fc57b3bf0ec28a930d40b0d285d93c06501cf6a0900180546001600160a01b0319163317905501610743565b5033600090815260156020526040812080548492906107b4908490611490565b9250508190555081601260008282546107cd9190611490565b90915550506004546000906064906107e590846114a3565b6107ef919061150b565b9050600060646005548461080391906114a3565b61080d919061150b565b90506108198183611490565b610823908461151f565b601160008282546108349190611490565b92505081905550816006600082825461084d9190611490565b9250508190555080600760008282546108669190611490565b90915550506040513381527f6cd71e167cab47cb2ccb763aada102691b585b848adb6395f1da4ac187b9214a9060200160405180910390a16108a6610c94565b50505050565b6108b4610d07565b6000600e5460ff1660028111156108cd576108cd6113d8565b1461090d5760405162461bcd60e51b815260206004820152601060248201526f2637ba3a32b93c903737ba1037b832b760811b604482015260640161044a565b600e80546002919060ff19166001835b0217905550600e546040517f194ff4f7bdb3b2992b2a6dc83f480514cbe7b49be9152924fba0e53282b0e221916109599160ff909116906113ee565b60405180910390a1565b336001600160a01b037f000000000000000000000000000000000000000000000000000000000000000016146109db5760405162461bcd60e51b815260206004820152601f60248201527f4f6e6c7920565246436f6f7264696e61746f722063616e2066756c66696c6c00604482015260640161044a565b6109e58282610d5a565b5050565b601481815481106103c057600080fd5b6002600e5460ff166002811115610a1257610a126113d8565b14610a575760405162461bcd60e51b8152602060048201526015602482015274131bdd1d195c9e481b9bdd0818d85b98d95b1b1959605a1b604482015260640161044a565b3360009081526017602052604090205460ff1615610aaa5760405162461bcd60e51b815260206004820152601060248201526f105b1c9958591e481c99599d5b99195960821b604482015260640161044a565b600b54336000908152601560205260408120549091610ac8916114a3565b905060008111610b0e5760405162461bcd60e51b8152602060048201526011602482015270139bc81d1a58dad95d1cc8189bdd59da1d607a1b604482015260640161044a565b336000818152601760205260409020805460ff19166001179055600a54610b42916001600160a01b03919091169083610e63565b50565b610b4d610d07565b6001600e5460ff166002811115610b6657610b666113d8565b14610ba85760405162461bcd60e51b8152602060048201526012602482015271131bdd1d195c9e481b9bdd0818db1bdcd95960721b604482015260640161044a565b6019546040516370a0823160e01b81523060048201527f00000000000000000000000000000000000000000000000000000000000000006001600160a01b0316906370a0823190602401602060405180830381865afa158015610c0f573d6000803e3d6000fd5b505050506040513d601f19601f82011682018060405250810190610c3391906114ba565b1015610c755760405162461bcd60e51b8152602060048201526011602482015270496e73756666696369656e74204c494e4b60781b604482015260640161044a565b610b42601854601954610eba565b610c8b610d07565b610b4281611040565b6010544210610d05576009546012541015610cbb57600e805460ff19166002179055610cce565b600e80546001919060ff1916828061091d565b600e546040517f194ff4f7bdb3b2992b2a6dc83f480514cbe7b49be9152924fba0e53282b0e221916109599160ff909116906113ee565b565b6000546001600160a01b03163314610d055760405162461bcd60e51b815260206004820152601660248201527527b7363c9031b0b63630b1363290313c9037bbb732b960511b604482015260640161044a565b601354600954811015610daf5760405162461bcd60e51b815260206004820152601760248201527f4e6f7420656e6f756768207061727469636970616e7473000000000000000000604482015260640161044a565b600d5460005b81811015610e5a576000610dc98486611532565b9050601460138281548110610de057610de0611546565b600091825260208083209091015483546001810185559383529181902090920180546001600160a01b0319166001600160a01b03909216919091179055604051610e37918791859101918252602082015260400190565b60408051601f198184030181529190528051602090910120945050600101610db5565b506108a66110e9565b604080516001600160a01b038416602482015260448082018490528251808303909101815260649091019091526020810180516001600160e01b031663a9059cbb60e01b179052610eb590849061123e565b505050565b60007f00000000000000000000000000000000000000000000000000000000000000006001600160a01b0316634000aea07f000000000000000000000000000000000000000000000000000000000000000084866000604051602001610f2a929190918252602082015260400190565b6040516020818303038152906040526040518463ffffffff1660e01b8152600401610f5793929190611580565b6020604051808303816000875af1158015610f76573d6000803e3d6000fd5b505050506040513d601f19601f82011682018060405250810190610f9a91906114d3565b50600083815260026020818152604080842054815180840189905280830186905230606082015260808082018390528351808303909101815260a090910190925281519183019190912093879052919052610ff6906001611490565b6000858152600260205260409020556110368482604080516020808201949094528082019290925280518083038201815260609092019052805191012090565b9150505b92915050565b336001600160a01b038216036110985760405162461bcd60e51b815260206004820152601760248201527f43616e6e6f74207472616e7366657220746f2073656c66000000000000000000604482015260640161044a565b600180546001600160a01b0319166001600160a01b0383811691821790925560008054604051929316917fed8889f560326eb138920d842192f0eb3dd22b4f139c87a2c57538e05bae12789190a350565b600354600654600a5461110a926001600160a01b0391821692911690610e63565b61113561111f6000546001600160a01b031690565b600754600a546001600160a01b03169190610e63565b6000805b6014548110156111cb5760006064600d838154811061115a5761115a611546565b906000526020600020015460115461117291906114a3565b61117c919061150b565b90506111b66014838154811061119457611194611546565b600091825260209091200154600a546001600160a01b03908116911683610e63565b6111c08184611490565b925050600101611139565b50806011541115611212576000816011546111e6919061151f565b90506112106111fd6000546001600160a01b031690565b600a546001600160a01b03169083610e63565b505b6040517f1ae1fac6be76a94950a139e90757f81e4ed7dbc26d278836bb13ebea5e2d52f190600090a150565b60006112536001600160a01b038416836112a1565b9050805160001415801561127857508080602001905181019061127691906114d3565b155b15610eb557604051635274afe760e01b81526001600160a01b038416600482015260240161044a565b60606112af838360006112b6565b9392505050565b6060814710156112db5760405163cd78605960e01b815230600482015260240161044a565b600080856001600160a01b031684866040516112f791906115c9565b60006040518083038185875af1925050503d8060008114611334576040519150601f19603f3d011682016040523d82523d6000602084013e611339565b606091505b5091509150611349868383611353565b9695505050505050565b60608261136857611363826113af565b6112af565b815115801561137f57506001600160a01b0384163b155b156113a857604051639996b31560e01b81526001600160a01b038516600482015260240161044a565b50806112af565b8051156113bf5780518082602001fd5b604051630a12f52160e11b815260040160405180910390fd5b634e487b7160e01b600052602160045260246000fd5b602081016003831061141057634e487b7160e01b600052602160045260246000fd5b91905290565b60006020828403121561142857600080fd5b5035919050565b60006020828403121561144157600080fd5b81356001600160a01b03811681146112af57600080fd5b6000806040838503121561146b57600080fd5b50508035926020909101359150565b634e487b7160e01b600052601160045260246000fd5b8082018082111561103a5761103a61147a565b808202811582820484141761103a5761103a61147a565b6000602082840312156114cc57600080fd5b5051919050565b6000602082840312156114e557600080fd5b815180151581146112af57600080fd5b634e487b7160e01b600052601260045260246000fd5b60008261151a5761151a6114f5565b500490565b8181038181111561103a5761103a61147a565b600082611541576115416114f5565b500690565b634e487b7160e01b600052603260045260246000fd5b60005b8381101561157757818101518382015260200161155f565b50506000910152565b60018060a01b038416815282602082015260606040820152600082518060608401526115b381608085016020870161155c565b601f01601f191691909101608001949350505050565b600082516115db81846020870161155c565b919091019291505056fea2646970667358221220fb7211d72df0decd33d1793e5da64ca65642e1ec93df3d9e642bad34319cf6ee64736f6c63430008180033",
  "linkReferences": {},
  "deployedLinkReferences": {}
}