{
  "_format": "hh-sol-artifact-1",
  "contractName": "BabyGrokAffiliateProxy",
  "sourceName": "contracts/BabyGrokProxy.sol",
  "abi": [
    {
      "inputs": [
        {
          "internalType": "address",
          "name": "_impl",
          "type": "address"
        }
      ],
      "stateMutability": "nonpayable",
      "type": "constructor"
    },
    {
      "stateMutability": "payable",
      "type": "fallback"
    },
    {
      "inputs": [],
      "name": "contractOwner",
      "outputs": [
        {
          "internalType": "address",
          "name": "",
          "type": "address"
        }
      ],
      "stateMutability": "view",
      "type": "function"
    },
    {
      "inputs": [],
      "name": "impl",
      "outputs": [
        {
          "internalType": "address",
          "name": "",
          "type": "address"
        }
      ],
      "stateMutability": "view",
      "type": "function"
    },
    {
      "inputs": [],
      "name": "removeOwnership",
      "outputs": [],
      "stateMutability": "nonpayable",
      "type": "function"
    },
    {
      "inputs": [
        {
          "internalType": "address",
          "name": "newImpl",
          "type": "address"
        }
      ],
      "name": "update",
      "outputs": [],
      "stateMutability": "nonpayable",
      "type": "function"
    },
    {
      "stateMutability": "payable",
      "type": "receive"
    }
  ],
  "bytecode": "0x608060405234801561001057600080fd5b5060405161028f38038061028f83398101604081905261002f9161005d565b600080546001600160a01b039092166001600160a01b0319928316179055600180549091163317905561008d565b60006020828403121561006f57600080fd5b81516001600160a01b038116811461008657600080fd5b9392505050565b6101f38061009c6000396000f3fe6080604052600436106100435760003560e01c80631c1b87721461005a5780638abf60771461007a578063ce606ee0146100b6578063d99bb9f7146100d657610052565b36610052576100506100eb565b005b6100506100eb565b34801561006657600080fd5b5061005061007536600461018d565b610107565b34801561008657600080fd5b5060005461009a906001600160a01b031681565b6040516001600160a01b03909116815260200160405180910390f35b3480156100c257600080fd5b5060015461009a906001600160a01b031681565b3480156100e257600080fd5b50610050610140565b6101056101006000546001600160a01b031690565b610169565b565b6001546001600160a01b0316331461011e57600080fd5b600080546001600160a01b0319166001600160a01b0392909216919091179055565b6001546001600160a01b0316331461015757600080fd5b600180546001600160a01b0319169055565b3660008037600080366000845af43d6000803e808015610188573d6000f35b3d6000fd5b60006020828403121561019f57600080fd5b81356001600160a01b03811681146101b657600080fd5b939250505056fea2646970667358221220b95492d3eef7cd416040482900034ee31e078feb438491f566b9e582470005bc64736f6c63430008180033",
  "linkReferences": {},
  "deployedLinkReferences": {}
}