{
  "_format": "hh-sol-artifact-1",
  "contractName": "BEATListings",
  "sourceName": "contracts/BEATListings.sol",
  "abi": [
    {
      "inputs": [
        {
          "internalType": "contract IERC20",
          "name": "_stableCoin",
          "type": "address"
        },
        {
          "internalType": "string",
          "name": "_name",
          "type": "string"
        },
        {
          "internalType": "string",
          "name": "_symbol",
          "type": "string"
        },
        {
          "internalType": "uint256",
          "name": "_fundraisingGoal",
          "type": "uint256"
        },
        {
          "internalType": "uint256",
          "name": "_contributionAmnt",
          "type": "uint256"
        },
        {
          "internalType": "uint256",
          "name": "_projectStartTime",
          "type": "uint256"
        },
        {
          "internalType": "uint256",
          "name": "_projectEndTime",
          "type": "uint256"
        },
        {
          "internalType": "address",
          "name": "_projectOwner",
          "type": "address"
        },
        {
          "internalType": "uint256",
          "name": "_platformFee",
          "type": "uint256"
        },
        {
          "internalType": "address",
          "name": "_platformWallet",
          "type": "address"
        },
        {
          "internalType": "uint256",
          "name": "_projectAPY",
          "type": "uint256"
        }
      ],
      "stateMutability": "nonpayable",
      "type": "constructor"
    },
    {
      "inputs": [
        {
          "internalType": "address",
          "name": "spender",
          "type": "address"
        },
        {
          "internalType": "uint256",
          "name": "allowance",
          "type": "uint256"
        },
        {
          "internalType": "uint256",
          "name": "needed",
          "type": "uint256"
        }
      ],
      "name": "ERC20InsufficientAllowance",
      "type": "error"
    },
    {
      "inputs": [
        {
          "internalType": "address",
          "name": "sender",
          "type": "address"
        },
        {
          "internalType": "uint256",
          "name": "balance",
          "type": "uint256"
        },
        {
          "internalType": "uint256",
          "name": "needed",
          "type": "uint256"
        }
      ],
      "name": "ERC20InsufficientBalance",
      "type": "error"
    },
    {
      "inputs": [
        {
          "internalType": "address",
          "name": "approver",
          "type": "address"
        }
      ],
      "name": "ERC20InvalidApprover",
      "type": "error"
    },
    {
      "inputs": [
        {
          "internalType": "address",
          "name": "receiver",
          "type": "address"
        }
      ],
      "name": "ERC20InvalidReceiver",
      "type": "error"
    },
    {
      "inputs": [
        {
          "internalType": "address",
          "name": "sender",
          "type": "address"
        }
      ],
      "name": "ERC20InvalidSender",
      "type": "error"
    },
    {
      "inputs": [
        {
          "internalType": "address",
          "name": "spender",
          "type": "address"
        }
      ],
      "name": "ERC20InvalidSpender",
      "type": "error"
    },
    {
      "inputs": [
        {
          "internalType": "address",
          "name": "owner",
          "type": "address"
        }
      ],
      "name": "OwnableInvalidOwner",
      "type": "error"
    },
    {
      "inputs": [
        {
          "internalType": "address",
          "name": "account",
          "type": "address"
        }
      ],
      "name": "OwnableUnauthorizedAccount",
      "type": "error"
    },
    {
      "anonymous": false,
      "inputs": [
        {
          "indexed": false,
          "internalType": "uint256",
          "name": "depositAmount",
          "type": "uint256"
        }
      ],
      "name": "AnnualAPRDeposited",
      "type": "event"
    },
    {
      "anonymous": false,
      "inputs": [
        {
          "indexed": true,
          "internalType": "address",
          "name": "owner",
          "type": "address"
        },
        {
          "indexed": true,
          "internalType": "address",
          "name": "spender",
          "type": "address"
        },
        {
          "indexed": false,
          "internalType": "uint256",
          "name": "value",
          "type": "uint256"
        }
      ],
      "name": "Approval",
      "type": "event"
    },
    {
      "anonymous": false,
      "inputs": [
        {
          "indexed": true,
          "internalType": "address",
          "name": "from",
          "type": "address"
        },
        {
          "indexed": true,
          "internalType": "address",
          "name": "project",
          "type": "address"
        },
        {
          "indexed": false,
          "internalType": "uint256",
          "name": "amount",
          "type": "uint256"
        }
      ],
      "name": "Contribution",
      "type": "event"
    },
    {
      "anonymous": false,
      "inputs": [
        {
          "indexed": false,
          "internalType": "uint256",
          "name": "timestamp",
          "type": "uint256"
        }
      ],
      "name": "ListingFinalized",
      "type": "event"
    },
    {
      "anonymous": false,
      "inputs": [
        {
          "indexed": true,
          "internalType": "address",
          "name": "previousOwner",
          "type": "address"
        },
        {
          "indexed": true,
          "internalType": "address",
          "name": "newOwner",
          "type": "address"
        }
      ],
      "name": "OwnershipTransferred",
      "type": "event"
    },
    {
      "anonymous": false,
      "inputs": [
        {
          "indexed": true,
          "internalType": "address",
          "name": "to",
          "type": "address"
        },
        {
          "indexed": true,
          "internalType": "address",
          "name": "project",
          "type": "address"
        },
        {
          "indexed": false,
          "internalType": "uint256",
          "name": "amount",
          "type": "uint256"
        }
      ],
      "name": "Refund",
      "type": "event"
    },
    {
      "anonymous": false,
      "inputs": [
        {
          "indexed": false,
          "internalType": "address",
          "name": "investor",
          "type": "address"
        },
        {
          "indexed": false,
          "internalType": "uint256",
          "name": "claimedAmount",
          "type": "uint256"
        }
      ],
      "name": "ReturnClaimed",
      "type": "event"
    },
    {
      "anonymous": false,
      "inputs": [
        {
          "indexed": false,
          "internalType": "address",
          "name": "to",
          "type": "address"
        },
        {
          "indexed": false,
          "internalType": "uint256",
          "name": "amount",
          "type": "uint256"
        }
      ],
      "name": "SharesClaimed",
      "type": "event"
    },
    {
      "anonymous": false,
      "inputs": [
        {
          "indexed": true,
          "internalType": "address",
          "name": "from",
          "type": "address"
        },
        {
          "indexed": true,
          "internalType": "address",
          "name": "to",
          "type": "address"
        },
        {
          "indexed": false,
          "internalType": "uint256",
          "name": "value",
          "type": "uint256"
        }
      ],
      "name": "Transfer",
      "type": "event"
    },
    {
      "anonymous": false,
      "inputs": [
        {
          "indexed": true,
          "internalType": "address",
          "name": "to",
          "type": "address"
        },
        {
          "indexed": true,
          "internalType": "address",
          "name": "project",
          "type": "address"
        },
        {
          "indexed": false,
          "internalType": "uint256",
          "name": "amount",
          "type": "uint256"
        }
      ],
      "name": "Withdraw",
      "type": "event"
    },
    {
      "inputs": [],
      "name": "APYStartTime",
      "outputs": [
        {
          "internalType": "uint256",
          "name": "",
          "type": "uint256"
        }
      ],
      "stateMutability": "view",
      "type": "function"
    },
    {
      "inputs": [],
      "name": "_claimShares",
      "outputs": [],
      "stateMutability": "nonpayable",
      "type": "function"
    },
    {
      "inputs": [],
      "name": "_claim_Refund_on_cancellation",
      "outputs": [],
      "stateMutability": "nonpayable",
      "type": "function"
    },
    {
      "inputs": [
        {
          "internalType": "uint256",
          "name": "_numberOfShares",
          "type": "uint256"
        }
      ],
      "name": "_participate",
      "outputs": [],
      "stateMutability": "nonpayable",
      "type": "function"
    },
    {
      "inputs": [
        {
          "internalType": "address",
          "name": "",
          "type": "address"
        }
      ],
      "name": "addressToContributions",
      "outputs": [
        {
          "internalType": "uint256",
          "name": "",
          "type": "uint256"
        }
      ],
      "stateMutability": "view",
      "type": "function"
    },
    {
      "inputs": [
        {
          "internalType": "address",
          "name": "",
          "type": "address"
        }
      ],
      "name": "addressToMintedTokens",
      "outputs": [
        {
          "internalType": "uint256",
          "name": "",
          "type": "uint256"
        }
      ],
      "stateMutability": "view",
      "type": "function"
    },
    {
      "inputs": [
        {
          "internalType": "address",
          "name": "owner",
          "type": "address"
        },
        {
          "internalType": "address",
          "name": "spender",
          "type": "address"
        }
      ],
      "name": "allowance",
      "outputs": [
        {
          "internalType": "uint256",
          "name": "",
          "type": "uint256"
        }
      ],
      "stateMutability": "view",
      "type": "function"
    },
    {
      "inputs": [
        {
          "internalType": "address",
          "name": "spender",
          "type": "address"
        },
        {
          "internalType": "uint256",
          "name": "value",
          "type": "uint256"
        }
      ],
      "name": "approve",
      "outputs": [
        {
          "internalType": "bool",
          "name": "",
          "type": "bool"
        }
      ],
      "stateMutability": "nonpayable",
      "type": "function"
    },
    {
      "inputs": [
        {
          "internalType": "address",
          "name": "account",
          "type": "address"
        }
      ],
      "name": "balanceOf",
      "outputs": [
        {
          "internalType": "uint256",
          "name": "",
          "type": "uint256"
        }
      ],
      "stateMutability": "view",
      "type": "function"
    },
    {
      "inputs": [
        {
          "internalType": "address",
          "name": "_investor",
          "type": "address"
        }
      ],
      "name": "calculateClaimableAPYForInvestor",
      "outputs": [
        {
          "internalType": "uint256",
          "name": "",
          "type": "uint256"
        }
      ],
      "stateMutability": "view",
      "type": "function"
    },
    {
      "inputs": [],
      "name": "cancel_Project",
      "outputs": [],
      "stateMutability": "nonpayable",
      "type": "function"
    },
    {
      "inputs": [],
      "name": "claimReturn",
      "outputs": [],
      "stateMutability": "nonpayable",
      "type": "function"
    },
    {
      "inputs": [],
      "name": "contributionAmnt",
      "outputs": [
        {
          "internalType": "uint256",
          "name": "",
          "type": "uint256"
        }
      ],
      "stateMutability": "view",
      "type": "function"
    },
    {
      "inputs": [],
      "name": "decimals",
      "outputs": [
        {
          "internalType": "uint8",
          "name": "",
          "type": "uint8"
        }
      ],
      "stateMutability": "view",
      "type": "function"
    },
    {
      "inputs": [],
      "name": "depositAPR",
      "outputs": [],
      "stateMutability": "nonpayable",
      "type": "function"
    },
    {
      "inputs": [],
      "name": "finalize",
      "outputs": [],
      "stateMutability": "nonpayable",
      "type": "function"
    },
    {
      "inputs": [],
      "name": "fundraisingGoal",
      "outputs": [
        {
          "internalType": "uint256",
          "name": "",
          "type": "uint256"
        }
      ],
      "stateMutability": "view",
      "type": "function"
    },
    {
      "inputs": [
        {
          "internalType": "address",
          "name": "",
          "type": "address"
        }
      ],
      "name": "investorClaimCount",
      "outputs": [
        {
          "internalType": "uint256",
          "name": "",
          "type": "uint256"
        }
      ],
      "stateMutability": "view",
      "type": "function"
    },
    {
      "inputs": [
        {
          "internalType": "address",
          "name": "",
          "type": "address"
        }
      ],
      "name": "investorToLastClaimTime",
      "outputs": [
        {
          "internalType": "uint256",
          "name": "",
          "type": "uint256"
        }
      ],
      "stateMutability": "view",
      "type": "function"
    },
    {
      "inputs": [
        {
          "internalType": "address",
          "name": "",
          "type": "address"
        }
      ],
      "name": "investorToShare",
      "outputs": [
        {
          "internalType": "uint256",
          "name": "",
          "type": "uint256"
        }
      ],
      "stateMutability": "view",
      "type": "function"
    },
    {
      "inputs": [],
      "name": "isCancelled",
      "outputs": [
        {
          "internalType": "bool",
          "name": "",
          "type": "bool"
        }
      ],
      "stateMutability": "view",
      "type": "function"
    },
    {
      "inputs": [],
      "name": "isFinalized",
      "outputs": [
        {
          "internalType": "bool",
          "name": "",
          "type": "bool"
        }
      ],
      "stateMutability": "view",
      "type": "function"
    },
    {
      "inputs": [],
      "name": "isFinished",
      "outputs": [
        {
          "internalType": "bool",
          "name": "",
          "type": "bool"
        }
      ],
      "stateMutability": "view",
      "type": "function"
    },
    {
      "inputs": [
        {
          "internalType": "address",
          "name": "platform",
          "type": "address"
        }
      ],
      "name": "listPlatform",
      "outputs": [],
      "stateMutability": "nonpayable",
      "type": "function"
    },
    {
      "inputs": [
        {
          "internalType": "address",
          "name": "",
          "type": "address"
        }
      ],
      "name": "listedPlatforms",
      "outputs": [
        {
          "internalType": "bool",
          "name": "",
          "type": "bool"
        }
      ],
      "stateMutability": "view",
      "type": "function"
    },
    {
      "inputs": [],
      "name": "maxAllowedSharesPerWallet",
      "outputs": [
        {
          "internalType": "uint256",
          "name": "",
          "type": "uint256"
        }
      ],
      "stateMutability": "view",
      "type": "function"
    },
    {
      "inputs": [],
      "name": "name",
      "outputs": [
        {
          "internalType": "string",
          "name": "",
          "type": "string"
        }
      ],
      "stateMutability": "view",
      "type": "function"
    },
    {
      "inputs": [],
      "name": "owner",
      "outputs": [
        {
          "internalType": "address",
          "name": "",
          "type": "address"
        }
      ],
      "stateMutability": "view",
      "type": "function"
    },
    {
      "inputs": [],
      "name": "platformFee",
      "outputs": [
        {
          "internalType": "uint256",
          "name": "",
          "type": "uint256"
        }
      ],
      "stateMutability": "view",
      "type": "function"
    },
    {
      "inputs": [],
      "name": "platformWallet",
      "outputs": [
        {
          "internalType": "address",
          "name": "",
          "type": "address"
        }
      ],
      "stateMutability": "view",
      "type": "function"
    },
    {
      "inputs": [],
      "name": "projectAPY",
      "outputs": [
        {
          "internalType": "uint256",
          "name": "",
          "type": "uint256"
        }
      ],
      "stateMutability": "view",
      "type": "function"
    },
    {
      "inputs": [],
      "name": "projectEndTime",
      "outputs": [
        {
          "internalType": "uint256",
          "name": "",
          "type": "uint256"
        }
      ],
      "stateMutability": "view",
      "type": "function"
    },
    {
      "inputs": [],
      "name": "projectStartTime",
      "outputs": [
        {
          "internalType": "uint256",
          "name": "",
          "type": "uint256"
        }
      ],
      "stateMutability": "view",
      "type": "function"
    },
    {
      "inputs": [],
      "name": "recoverETH",
      "outputs": [],
      "stateMutability": "nonpayable",
      "type": "function"
    },
    {
      "inputs": [],
      "name": "refundableShares",
      "outputs": [
        {
          "internalType": "uint256",
          "name": "",
          "type": "uint256"
        }
      ],
      "stateMutability": "view",
      "type": "function"
    },
    {
      "inputs": [
        {
          "internalType": "address",
          "name": "platform",
          "type": "address"
        }
      ],
      "name": "removeListedPlatform",
      "outputs": [],
      "stateMutability": "nonpayable",
      "type": "function"
    },
    {
      "inputs": [],
      "name": "renounceOwnership",
      "outputs": [],
      "stateMutability": "nonpayable",
      "type": "function"
    },
    {
      "inputs": [
        {
          "internalType": "address",
          "name": "tokenAdd",
          "type": "address"
        }
      ],
      "name": "rescueERC20",
      "outputs": [],
      "stateMutability": "nonpayable",
      "type": "function"
    },
    {
      "inputs": [],
      "name": "stableCoin",
      "outputs": [
        {
          "internalType": "contract IERC20",
          "name": "",
          "type": "address"
        }
      ],
      "stateMutability": "view",
      "type": "function"
    },
    {
      "inputs": [],
      "name": "symbol",
      "outputs": [
        {
          "internalType": "string",
          "name": "",
          "type": "string"
        }
      ],
      "stateMutability": "view",
      "type": "function"
    },
    {
      "inputs": [],
      "name": "totalAmountRefunded",
      "outputs": [
        {
          "internalType": "uint256",
          "name": "",
          "type": "uint256"
        }
      ],
      "stateMutability": "view",
      "type": "function"
    },
    {
      "inputs": [],
      "name": "totalRaised",
      "outputs": [
        {
          "internalType": "uint256",
          "name": "",
          "type": "uint256"
        }
      ],
      "stateMutability": "view",
      "type": "function"
    },
    {
      "inputs": [],
      "name": "totalSharesAllocated",
      "outputs": [
        {
          "internalType": "uint256",
          "name": "",
          "type": "uint256"
        }
      ],
      "stateMutability": "view",
      "type": "function"
    },
    {
      "inputs": [],
      "name": "totalSharesSold",
      "outputs": [
        {
          "internalType": "uint256",
          "name": "",
          "type": "uint256"
        }
      ],
      "stateMutability": "view",
      "type": "function"
    },
    {
      "inputs": [],
      "name": "totalSupply",
      "outputs": [
        {
          "internalType": "uint256",
          "name": "",
          "type": "uint256"
        }
      ],
      "stateMutability": "view",
      "type": "function"
    },
    {
      "inputs": [
        {
          "internalType": "address",
          "name": "to",
          "type": "address"
        },
        {
          "internalType": "uint256",
          "name": "value",
          "type": "uint256"
        }
      ],
      "name": "transfer",
      "outputs": [
        {
          "internalType": "bool",
          "name": "",
          "type": "bool"
        }
      ],
      "stateMutability": "nonpayable",
      "type": "function"
    },
    {
      "inputs": [
        {
          "internalType": "address",
          "name": "from",
          "type": "address"
        },
        {
          "internalType": "address",
          "name": "to",
          "type": "address"
        },
        {
          "internalType": "uint256",
          "name": "value",
          "type": "uint256"
        }
      ],
      "name": "transferFrom",
      "outputs": [
        {
          "internalType": "bool",
          "name": "",
          "type": "bool"
        }
      ],
      "stateMutability": "nonpayable",
      "type": "function"
    },
    {
      "inputs": [
        {
          "internalType": "address",
          "name": "newOwner",
          "type": "address"
        }
      ],
      "name": "transferOwnership",
      "outputs": [],
      "stateMutability": "nonpayable",
      "type": "function"
    },
    {
      "stateMutability": "payable",
      "type": "receive"
    }
  ],
  "bytecode": "0x60806040523480156200001157600080fd5b5060405162002bcb38038062002bcb83398101604081905262000034916200036e565b89896200004133620001c4565b60046200004f8382620004e5565b5060056200005e8282620004e5565b5050600160065550858511620000c75760405162461bcd60e51b815260206004820152602360248201527f456e642074696d652063616e2774206265206265666f72652073746172742074604482015262696d6560e81b60648201526084015b60405180910390fd5b6001600160a01b038b166200011f5760405162461bcd60e51b815260206004820152601660248201527f43616e277420736574207a65726f2061646472657373000000000000000000006044820152606401620000be565b600780546001600160a01b0319166001600160a01b038d16179055620001458462000214565b600c889055601b8790556200015c600a89620005b1565b601c55600a869055600b8590556008839055600980546001600160a01b0319166001600160a01b038416179055600f819055306000908152601560205260409020805460ff19166001179055620001b332620001c4565b5050505050505050505050620005d4565b600080546001600160a01b038381166001600160a01b0319831681178455604051919092169283917f8be0079c531659141344cd1fd0a4f28419497f9722a3daafe3b4186f6b6457e09190a35050565b6200021e62000258565b6001600160a01b0381166200024a57604051631e4fbdf760e01b815260006004820152602401620000be565b6200025581620001c4565b50565b6000546001600160a01b03163314620002875760405163118cdaa760e01b8152336004820152602401620000be565b565b80516001600160a01b0381168114620002a157600080fd5b919050565b634e487b7160e01b600052604160045260246000fd5b600082601f830112620002ce57600080fd5b81516001600160401b0380821115620002eb57620002eb620002a6565b604051601f8301601f19908116603f01168101908282118183101715620003165762000316620002a6565b81604052838152602092508660208588010111156200033457600080fd5b600091505b8382101562000358578582018301518183018401529082019062000339565b6000602085830101528094505050505092915050565b60008060008060008060008060008060006101608c8e0312156200039157600080fd5b6200039c8c62000289565b60208d0151909b506001600160401b03811115620003b957600080fd5b620003c78e828f01620002bc565b60408e0151909b5090506001600160401b03811115620003e657600080fd5b620003f48e828f01620002bc565b99505060608c0151975060808c0151965060a08c0151955060c08c015194506200042160e08d0162000289565b93506101008c015192506200043a6101208d0162000289565b91506101408c015190509295989b509295989b9093969950565b600181811c908216806200046957607f821691505b6020821081036200048a57634e487b7160e01b600052602260045260246000fd5b50919050565b601f821115620004e0576000816000526020600020601f850160051c81016020861015620004bb5750805b601f850160051c820191505b81811015620004dc57828155600101620004c7565b5050505b505050565b81516001600160401b03811115620005015762000501620002a6565b620005198162000512845462000454565b8462000490565b602080601f831160018114620005515760008415620005385750858301515b600019600386901b1c1916600185901b178555620004dc565b600085815260208120601f198616915b82811015620005825788860151825594840194600190910190840162000561565b5085821015620005a15787850151600019600388901b60f8161c191681555b5050505050600190811b01905550565b600082620005cf57634e487b7160e01b600052601260045260246000fd5b500490565b6125e780620005e46000396000f3fe6080604052600436106102975760003560e01c80637b3529621161015a578063baad7d85116100c1578063cfb2b5e91161007a578063cfb2b5e914610772578063dd62ed3e1461079f578063e7afeeed146107e5578063f2fde38b14610812578063f648200114610832578063fa2af9da1461085257600080fd5b8063baad7d85146106c3578063c0daee49146106e3578063c16a0383146106f9578063c5c4744c14610726578063ca34da201461073c578063ccec37161461075257600080fd5b8063992642e511610113578063992642e5146106005780639e7b08d514610620578063a9059cbb14610636578063abd6192c14610656578063afee085b14610683578063ba53c283146106a357600080fd5b80637b3529621461054a5780638d4e4083146105695780638da5cb5b1461058957806394febbf3146105bb57806395d89b41146105d157806395ee1221146105e657600080fd5b8063313ce567116101fe5780635d97c1a0116101b75780635d97c1a0146104925780636d1e6516146104bf57806370a08231146104d4578063715018a61461050a57806373aff5af1461051f5780637921ba961461053557600080fd5b8063313ce5671461040b57806343d25e821461042757806349a1ae911461043d5780634bb278f3146104525780634caa40d81461046757806354ceb5fb1461047c57600080fd5b8063132533fa11610250578063132533fa14610364578063156435541461039457806318160ddd146103aa57806323b872dd146103bf57806326232a2e146103df57806326493848146103f557600080fd5b80630614117a146102a357806306fdde03146102ba57806307e87512146102e5578063095ea7b3146103095780631008e96114610339578063106425091461034e57600080fd5b3661029e57005b600080fd5b3480156102af57600080fd5b506102b8610872565b005b3480156102c657600080fd5b506102cf6108f3565b6040516102dc9190612225565b60405180910390f35b3480156102f157600080fd5b506102fb601b5481565b6040519081526020016102dc565b34801561031557600080fd5b50610329610324366004612290565b610985565b60405190151581526020016102dc565b34801561034557600080fd5b506102b861099f565b34801561035a57600080fd5b506102fb600f5481565b34801561037057600080fd5b5061032961037f3660046122ba565b60156020526000908152604090205460ff1681565b3480156103a057600080fd5b506102fb600b5481565b3480156103b657600080fd5b506003546102fb565b3480156103cb57600080fd5b506103296103da3660046122dc565b610a78565b3480156103eb57600080fd5b506102fb60085481565b34801561040157600080fd5b506102fb60125481565b34801561041757600080fd5b50604051601281526020016102dc565b34801561043357600080fd5b506102fb60105481565b34801561044957600080fd5b506102b8610a9c565b34801561045e57600080fd5b506102b8610be3565b34801561047357600080fd5b506102b8610c47565b34801561048857600080fd5b506102fb60135481565b34801561049e57600080fd5b506102fb6104ad3660046122ba565b60176020526000908152604090205481565b3480156104cb57600080fd5b506102b8610d78565b3480156104e057600080fd5b506102fb6104ef3660046122ba565b6001600160a01b031660009081526001602052604090205490565b34801561051657600080fd5b506102b8610e3f565b34801561052b57600080fd5b506102fb600e5481565b34801561054157600080fd5b506102b8610e53565b34801561055657600080fd5b5060145461032990610100900460ff1681565b34801561057557600080fd5b506014546103299062010000900460ff1681565b34801561059557600080fd5b506000546001600160a01b03165b6040516001600160a01b0390911681526020016102dc565b3480156105c757600080fd5b506102fb600a5481565b3480156105dd57600080fd5b506102cf61114a565b3480156105f257600080fd5b506014546103299060ff1681565b34801561060c57600080fd5b506007546105a3906001600160a01b031681565b34801561062c57600080fd5b506102fb600c5481565b34801561064257600080fd5b50610329610651366004612290565b611159565b34801561066257600080fd5b506102fb6106713660046122ba565b601a6020526000908152604090205481565b34801561068f57600080fd5b506102b861069e3660046122ba565b611167565b3480156106af57600080fd5b506102b86106be366004612318565b6111e2565b3480156106cf57600080fd5b506102fb6106de3660046122ba565b61167c565b3480156106ef57600080fd5b506102fb60115481565b34801561070557600080fd5b506102fb6107143660046122ba565b60196020526000908152604090205481565b34801561073257600080fd5b506102fb600d5481565b34801561074857600080fd5b506102fb601c5481565b34801561075e57600080fd5b506102b861076d3660046122ba565b611793565b34801561077e57600080fd5b506102fb61078d3660046122ba565b60186020526000908152604090205481565b3480156107ab57600080fd5b506102fb6107ba366004612331565b6001600160a01b03918216600090815260026020908152604080832093909416825291909152205490565b3480156107f157600080fd5b506102fb6108003660046122ba565b60166020526000908152604090205481565b34801561081e57600080fd5b506102b861082d3660046122ba565b611913565b34801561083e57600080fd5b506102b861084d3660046122ba565b61194e565b34801561085e57600080fd5b506009546105a3906001600160a01b031681565b61087a6119cc565b600047116108c45760405162461bcd60e51b81526020600482015260126024820152712737ba3434b733903a37903932b1b7bb32b960711b60448201526064015b60405180910390fd5b60405133904780156108fc02916000818181858888f193505050501580156108f0573d6000803e3d6000fd5b50565b60606004805461090290612364565b80601f016020809104026020016040519081016040528092919081815260200182805461092e90612364565b801561097b5780601f106109505761010080835404028352916020019161097b565b820191906000526020600020905b81548152906001019060200180831161095e57829003601f168201915b5050505050905090565b6000336109938185856119f9565b60019150505b92915050565b6109a76119cc565b60006064600f54600d546109bb91906123b4565b6109c591906123cb565b6007546040516323b872dd60e01b8152336004820152306024820152604481018390529192506001600160a01b0316906323b872dd906064016020604051808303816000875af1158015610a1d573d6000803e3d6000fd5b505050506040513d601f19601f82011682018060405250810190610a4191906123ed565b506040518181527f5bd597f43e1aaceef3ddd1a4ef7f8c1cd0898cab692b0988cd731bbd40920fcb9060200160405180910390a150565b600033610a86858285611a06565b610a91858585611a84565b506001949350505050565b60145462010000900460ff16610ac45760405162461bcd60e51b81526004016108bb9061240f565b33600090815260196020526040902054610af05760405162461bcd60e51b81526004016108bb90612451565b600062278d0060105442610b049190612496565b610b0e91906123cb565b336000908152601860205260409020549091508111610b955760405162461bcd60e51b815260206004820152603f60248201527f596f75206861766520616c726561647920636c61696d656420666f722074686960448201527f7320706572696f64206f72206974206973206e6f74207965742074696d652e0060648201526084016108bb565b33600090815260186020526040812054610baf9083612496565b3360009081526018602052604081208490559091505b81811015610bde57610bd633611b5d565b600101610bc5565b505050565b610beb6119cc565b610bf433611d57565b6014805462ff00001916620100001790554260108190556040517f9d7c6bbe8ca6f2433812f43ed204a1d7ea4ae548db3a3d6e83f8d1ce67e31a5391610c3d9190815260200190565b60405180910390a1565b60145460ff1615610c6a5760405162461bcd60e51b81526004016108bb906124a9565b600260065403610c8c5760405162461bcd60e51b81526004016108bb906124e0565b600260065560145462010000900460ff16610cb95760405162461bcd60e51b81526004016108bb9061240f565b33600090815260196020526040902054610ce55760405162461bcd60e51b81526004016108bb90612451565b33600090815260196020908152604080832054601a9092528220805491928392610d10908490612517565b90915550610d2090503382611f4f565b8060136000828254610d329190612517565b909155505060408051338152602081018390527f649fde579b8ba49bd4fbcb330614cb075b8d53c352c5adc49161b6f654e400a2910160405180910390a1506001600655565b610d806119cc565b60145460ff1615610da35760405162461bcd60e51b81526004016108bb906124a9565b600a544210158015610db65750600b5442105b610dd25760405162461bcd60e51b81526004016108bb9061252a565b601454610100900460ff1615610e2a5760405162461bcd60e51b815260206004820152601d60248201527f50726f6a6563743a2070726f6a656374206861732066696e697368656400000060448201526064016108bb565b6014805460ff19166001179055600e54601155565b610e476119cc565b610e516000611f89565b565b600260065403610e755760405162461bcd60e51b81526004016108bb906124e0565b600260065560145460ff1680610ea05750600b544210158015610ea05750601454610100900460ff16155b610ef85760405162461bcd60e51b8152602060048201526024808201527f50726f6a6563743a2063616e6e6f7420726566756e642070726f6a6563742066604482015263756e647360e01b60648201526084016108bb565b33600090815260166020526040902054610f245760405162461bcd60e51b81526004016108bb90612451565b6000601154118015610fb1575033600090815260166020526040908190205460075491516370a0823160e01b815230600482015290916001600160a01b0316906370a0823190602401602060405180830381865afa158015610f8a573d6000803e3d6000fd5b505050506040513d601f19601f82011682018060405250810190610fae9190612598565b10155b610ffd5760405162461bcd60e51b815260206004820152601e60248201527f4e6f207368617265732072656d61696e696e6720666f7220726566756e64000060448201526064016108bb565b336000908152601660205260408120546012805491928392611020908490612517565b90915550503360009081526016602090815260408083208390556019909152812054600e805491929091611055908490612496565b909155505033600090815260196020526040812054601180549192909161107d908490612496565b90915550503360008181526019602052604080822091909155600754905163a9059cbb60e01b81526004810192909252602482018390526001600160a01b03169063a9059cbb906044016020604051808303816000875af11580156110e6573d6000803e3d6000fd5b505050506040513d601f19601f8201168201806040525081019061110a91906123ed565b50604051818152309033907ff40cc8c1a1d17359049ba500cfc894596a692cffc9d03943cd92ec2e159cf6ae9060200160405180910390a3506001600655565b60606005805461090290612364565b600033610993818585611a84565b61116f6119cc565b6001600160a01b0381166111c15760405162461bcd60e51b815260206004820152601960248201527843616e27742073657420746f207a65726f206164647265737360381b60448201526064016108bb565b6001600160a01b03166000908152601560205260409020805460ff19169055565b60145460ff16156112055760405162461bcd60e51b81526004016108bb906124a9565b600a5442101580156112185750600b5442105b6112345760405162461bcd60e51b81526004016108bb9061252a565b601454610100900460ff161561128c5760405162461bcd60e51b815260206004820152601d60248201527f50726f6a6563743a2070726f6a656374206861732066696e697368656400000060448201526064016108bb565b6002600654036112ae5760405162461bcd60e51b81526004016108bb906124e0565b600260065580158015906112c45750601c548111155b6113365760405162461bcd60e51b815260206004820152603860248201527f5368617265732063616e2774206265206c657373207468616e207a65726f206160448201527f6e64206d6f7265207468616e206d617820616c6c6f776564000000000000000060648201526084016108bb565b600c546007546040516370a0823160e01b81523060048201526001600160a01b03909116906370a0823190602401602060405180830381865afa158015611381573d6000803e3d6000fd5b505050506040513d601f19601f820116820180604052508101906113a59190612598565b82601b546113b391906123b4565b6113bd9190612517565b11156114165760405162461bcd60e51b815260206004820152602260248201527f457863656564696e6720746f74616c2066756e642072616973696e6720676f616044820152616c2160f01b60648201526084016108bb565b601c5433600090815260196020526040902054611434908390612517565b11156114955760405162461bcd60e51b815260206004820152602a60248201527f43616e277420627579206d6f7265207468616e20746865206d617820736861726044820152696520616c6c6f7765642160b01b60648201526084016108bb565b600081601b546114a591906123b4565b600c546007546040516370a0823160e01b815230600482015292935090916001600160a01b03909116906370a0823190602401602060405180830381865afa1580156114f5573d6000803e3d6000fd5b505050506040513d601f19601f820116820180604052508101906115199190612598565b83601b5461152791906123b4565b6115319190612517565b10611546576014805461ff0019166101001790555b6007546040516323b872dd60e01b8152336004820152306024820152604481018390526001600160a01b03909116906323b872dd906064016020604051808303816000875af115801561159d573d6000803e3d6000fd5b505050506040513d601f19601f820116820180604052508101906115c191906123ed565b5033600090815260166020526040812080548392906115e1908490612517565b90915550503360009081526019602052604081208054849290611605908490612517565b9250508190555080600d600082825461161e9190612517565b9250508190555081600e60008282546116379190612517565b9091555050604051818152309033907f71be8766c1bd9bb33623f518aecc1d98612c75b596f4a0c38408f72239ef4e609060200160405180910390a350506001600655565b6001600160a01b0381166000908152601960205260408120546116e15760405162461bcd60e51b815260206004820152601e60248201527f50726f6a6563743a206164647265737320686173206e6f20736861726573000060448201526064016108bb565b6001600160a01b03821660009081526017602052604081205481036117145760105461170d9042612496565b905061173a565b6001600160a01b0383166000908152601760205260409020546117379042612496565b90505b600f54601b546001600160a01b03851660009081526019602052604081205490926301e1338092859261176d91906123b4565b61177791906123b4565b61178191906123b4565b61178b91906123cb565b949350505050565b61179b6119cc565b6007546001600160a01b03908116908216036118145760405162461bcd60e51b815260206004820152603260248201527f43616e277420636c61696d2066756e642072616973696e6720746f6b656e73206044820152717573696e672074686973206d6574686f642160701b60648201526084016108bb565b6040516370a0823160e01b81523060048201526000906001600160a01b038316906370a0823190602401602060405180830381865afa15801561185b573d6000803e3d6000fd5b505050506040513d601f19601f8201168201806040525081019061187f9190612598565b9050816001600160a01b031663a9059cbb6118a26000546001600160a01b031690565b6040516001600160e01b031960e084901b1681526001600160a01b039091166004820152602481018490526044016020604051808303816000875af11580156118ef573d6000803e3d6000fd5b505050506040513d601f19601f82011682018060405250810190610bde91906123ed565b61191b6119cc565b6001600160a01b03811661194557604051631e4fbdf760e01b8152600060048201526024016108bb565b6108f081611f89565b6119566119cc565b6001600160a01b0381166119a85760405162461bcd60e51b815260206004820152601960248201527843616e27742073657420746f207a65726f206164647265737360381b60448201526064016108bb565b6001600160a01b03166000908152601560205260409020805460ff19166001179055565b6000546001600160a01b03163314610e515760405163118cdaa760e01b81523360048201526024016108bb565b610bde8383836001611fd9565b6001600160a01b038381166000908152600260209081526040808320938616835292905220546000198114611a7e5781811015611a6f57604051637dc7a0d960e11b81526001600160a01b038416600482015260248101829052604481018390526064016108bb565b611a7e84848484036000611fd9565b50505050565b3360009081526015602052604090205460ff16611af75760405162461bcd60e51b815260206004820152602b60248201527f57686974656c697374656445524332303a2063616c6c6572206973206e6f742060448201526a1dda1a5d195b1a5cdd195960aa1b60648201526084016108bb565b6001600160a01b03831660009081526019602052604081208054839290611b1f908490612496565b90915550506001600160a01b03821660009081526019602052604081208054839290611b4c908490612517565b90915550610bde90508383836120a0565b6000611b688261167c565b6007546040516370a0823160e01b815230600482015291925082916001600160a01b03909116906370a0823190602401602060405180830381865afa158015611bb5573d6000803e3d6000fd5b505050506040513d601f19601f82011682018060405250810190611bd99190612598565b1015611c99576007546001600160a01b03166323b872dd611c026000546001600160a01b031690565b306064600f54600d54611c1591906123b4565b611c1f91906123cb565b6040516001600160e01b031960e086901b1681526001600160a01b03938416600482015292909116602483015260448201526064016020604051808303816000875af1158015611c73573d6000803e3d6000fd5b505050506040513d601f19601f82011682018060405250810190611c9791906123ed565b505b60075460405163a9059cbb60e01b81526001600160a01b038481166004830152602482018490529091169063a9059cbb906044016020604051808303816000875af1158015611cec573d6000803e3d6000fd5b505050506040513d601f19601f82011682018060405250810190611d1091906123ed565b50604080516001600160a01b0384168152602081018390527fd6a45326680045c471b7b30597d25e52e420f1e7535046ca9ad2944a1bb53487910160405180910390a15050565b601454610100900460ff16611dae5760405162461bcd60e51b815260206004820181905260248201527f50726f6a6563743a2070726f6a656374206973206e6f742066696e697368656460448201526064016108bb565b60006064600f54600d54611dc291906123b4565b611dcc91906123cb565b90506000606460085483600d54611de39190612496565b611ded91906123b4565b611df791906123cb565b905060008183600d54611e0a9190612496565b611e149190612496565b60075460095460405163a9059cbb60e01b81526001600160a01b03918216600482015260248101869052929350169063a9059cbb906044016020604051808303816000875af1158015611e6b573d6000803e3d6000fd5b505050506040513d601f19601f82011682018060405250810190611e8f91906123ed565b5060075460405163a9059cbb60e01b81526001600160a01b038681166004830152602482018490529091169063a9059cbb906044016020604051808303816000875af1158015611ee3573d6000803e3d6000fd5b505050506040513d601f19601f82011682018060405250810190611f0791906123ed565b5060405181815230906001600160a01b038616907f9b1bfa7fa9ee420a16e124f794c35ac9f90472acc99140eb2f6447c714cad8eb906020015b60405180910390a350505050565b6001600160a01b038216611f795760405163ec442f0560e01b8152600060048201526024016108bb565b611f85600083836120fb565b5050565b600080546001600160a01b038381166001600160a01b0319831681178455604051919092169283917f8be0079c531659141344cd1fd0a4f28419497f9722a3daafe3b4186f6b6457e09190a35050565b6001600160a01b0384166120035760405163e602df0560e01b8152600060048201526024016108bb565b6001600160a01b03831661202d57604051634a1406b160e11b8152600060048201526024016108bb565b6001600160a01b0380851660009081526002602090815260408083209387168352929052208290558015611a7e57826001600160a01b0316846001600160a01b03167f8c5be1e5ebec7d5bd14f71427d1e84f3dd0314c0f7b2291e5b200ac8c7c3b92584604051611f4191815260200190565b6001600160a01b0383166120ca57604051634b637e8f60e11b8152600060048201526024016108bb565b6001600160a01b0382166120f45760405163ec442f0560e01b8152600060048201526024016108bb565b610bde8383835b6001600160a01b03831661212657806003600082825461211b9190612517565b909155506121989050565b6001600160a01b038316600090815260016020526040902054818110156121795760405163391434e360e21b81526001600160a01b038516600482015260248101829052604481018390526064016108bb565b6001600160a01b03841660009081526001602052604090209082900390555b6001600160a01b0382166121b4576003805482900390556121d3565b6001600160a01b03821660009081526001602052604090208054820190555b816001600160a01b0316836001600160a01b03167fddf252ad1be2c89b69c2b068fc378daa952ba7f163c4a11628f55a4df523b3ef8360405161221891815260200190565b60405180910390a3505050565b60006020808352835180602085015260005b8181101561225357858101830151858201604001528201612237565b506000604082860101526040601f19601f8301168501019250505092915050565b80356001600160a01b038116811461228b57600080fd5b919050565b600080604083850312156122a357600080fd5b6122ac83612274565b946020939093013593505050565b6000602082840312156122cc57600080fd5b6122d582612274565b9392505050565b6000806000606084860312156122f157600080fd5b6122fa84612274565b925061230860208501612274565b9150604084013590509250925092565b60006020828403121561232a57600080fd5b5035919050565b6000806040838503121561234457600080fd5b61234d83612274565b915061235b60208401612274565b90509250929050565b600181811c9082168061237857607f821691505b60208210810361239857634e487b7160e01b600052602260045260246000fd5b50919050565b634e487b7160e01b600052601160045260246000fd5b80820281158282048414176109995761099961239e565b6000826123e857634e487b7160e01b600052601260045260246000fd5b500490565b6000602082840312156123ff57600080fd5b815180151581146122d557600080fd5b60208082526022908201527f50726f6a6563743a2053616c65206973206e6f742066696e6973686564207965604082015261742160f01b606082015260800190565b60208082526025908201527f50726f6a6563743a206164647265737320686173206e6f20636f6e747269627560408201526474696f6e7360d81b606082015260800190565b818103818111156109995761099961239e565b6020808252601d908201527f50726f6a6563743a2070726f6a6563742069732063616e63656c6c6564000000604082015260600190565b6020808252601f908201527f5265656e7472616e637947756172643a207265656e7472616e742063616c6c00604082015260600190565b808201808211156109995761099961239e565b60208082526048908201527f50726f6a6563743a2045697468657220697420686173206e6f7420737461727460408201527f6564206f72207468652074696d65206c696d697420666f722070726f6a65637460608201526708195e1c1a5c995960c21b608082015260a00190565b6000602082840312156125aa57600080fd5b505191905056fea26469706673582212202dea6b8d6ab75abba1d8479edb901e2224712258fafa9d426c574f70022d63a664736f6c63430008180033",
  "linkReferences": {},
  "deployedLinkReferences": {}
}